:020000040800F2
:1000000000000220D502000825030008250300088F
:100010002503000825030008250300080000000050
:1000200000000000000000000000000025030008A0
:100030002503000800000000250300082503000830
:1000400025030008250300082503000825030008F0
:1000500025030008250300082503000825030008E0
:1000600025030008250300082503000825030008D0
:1000700025030008250300082503000825030008C0
:1000800025030008250300082503000825030008B0
:1000900025030008250300082503000825030008A0
:1000A0002503000825030008250300082503000890
:1000B0002503000825030008250300082503000880
:1000C0002503000825030008250300082503000870
:1000D0002503000825030008250300082503000860
:1000E0002503000825030008250300082503000850
:1000F0002503000825030008250300082503000840
:10010000250300082503000825030008250300082F
:10011000250300082503000825030008250300081F
:10012000250300082503000825030008250300080F
:10013000250300080000000000000000250300085F
:1001400025030008250300082503000825030008EF
:1001500025030008250300082503000825030008DF
:1001600025030008250300082503000825030008CF
:1001700025030008250300082503000800000000EF
:10018000000000000000000000000000000000006F
:1001900025030008000000000000000025030008FF
:1001A000000000000000000000000000250300081F
:1001B000250300082503000825030008250300087F
:0401C000250300080B
:1001C40010B5054C237833B9044B13B10448AFF38D
:1001D40000800123237010BD0800002000000000EF
:1001E4007003000808B5034B1BB103490348AFF380
:1001F400008008BD000000000C000020700300080F
:1002040080B483B000AF78602A4B1B68294A43F45A
:1002140080531360284B00221A60274B1B68264A20
:1002240043F004031360244B1B68234A23F4004364
:1002340013607B681B79002B06D11F4B1B681E4A79
:1002440023F00203136005E01B4B1B681A4A43F0BA
:10025400020313607B685B79002B06D1164B1B6885
:10026400154A23F00103136005E0134B1B68124A7F
:1002740043F001031360104B1B680F4A23F038034B
:1002840013600D4B1A687B689B78DB000A491343A3
:100294000B60094B1B68084A43F400631360064B68
:1002A4001B68054A43F04003136000BF0C37BD468A
:1002B40080BC7047443802400030014080B500AF34
:1002C4000248FFF79DFF00BFFDE700BF00000020CC
:1002D4000D488546AFF300800C480D490D4A0023B4
:1002E40002E0D458C4500433C4188C42F9D30A4AE7
:1002F4000A4C002301E013600432A242FBD300F055
:1003040011F8FFF7DBFFFEE70000022000000020E9
:1003140008000020900300080800002024000020AA
:10032400FEE7000070B50D4D0D4C641BA4100026B3
:10033400A64209D10B4D0C4C00F018F8641BA41014
:100344000026A64205D170BD55F8043B98470136F6
:10035400EEE755F8043B98470136F2E788030008B6
:1003640088030008880300088C030008F8B500BF60
:10037400F8BC08BC9E467047F8B500BFF8BC08BC82
:040384009E467047DA
:04038800E90100087F
:04038C00C50100089F
:0803900001010701000000005B
:04000005080002D518
:00000001FF
